{
  "_format": "hh-sol-artifact-1",
  "contractName": "BondingCurve",
  "sourceName": "contracts/BondingCurve.sol",
  "abi": [
    {
      "inputs": [],
      "name": "BASE_PRICE",
      "outputs": [
        {
          "internalType": "uint256",
          "name": "",
          "type": "uint256"
        }
      ],
      "stateMutability": "view",
      "type": "function"
    },
    {
      "inputs": [],
      "name": "CURVE_SUPPLY",
      "outputs": [
        {
          "internalType": "uint256",
          "name": "",
          "type": "uint256"
        }
      ],
      "stateMutability": "view",
      "type": "function"
    },
    {
      "inputs": [],
      "name": "SLOPE",
      "outputs": [
        {
          "internalType": "uint256",
          "name": "",
          "type": "uint256"
        }
      ],
      "stateMutability": "view",
      "type": "function"
    },
    {
      "inputs": [],
      "name": "TOTAL_SUPPLY",
      "outputs": [
        {
          "internalType": "uint256",
          "name": "",
          "type": "uint256"
        }
      ],
      "stateMutability": "view",
      "type": "function"
    },
    {
      "inputs": [
        {
          "internalType": "uint256",
          "name": "amount",
          "type": "uint256"
        },
        {
          "internalType": "uint256",
          "name": "currentSupply",
          "type": "uint256"
        }
      ],
      "name": "getBuyPrice",
      "outputs": [
        {
          "internalType": "uint256",
          "name": "",
          "type": "uint256"
        }
      ],
      "stateMutability": "pure",
      "type": "function"
    },
    {
      "inputs": [
        {
          "internalType": "uint256",
          "name": "amount",
          "type": "uint256"
        },
        {
          "internalType": "uint256",
          "name": "currentSupply",
          "type": "uint256"
        }
      ],
      "name": "getSellPrice",
      "outputs": [
        {
          "internalType": "uint256",
          "name": "",
          "type": "uint256"
        }
      ],
      "stateMutability": "pure",
      "type": "function"
    }
  ],
  "bytecode": "0x608060405234801561001057600080fd5b506105db806100206000396000f3fe608060405234801561001057600080fd5b50600436106100625760003560e01c80631e4c7292146100675780638b7cc62914610085578063902d55a5146100a35780639477d85d146100c1578063c157253d146100f1578063f86325ed14610121575b600080fd5b61006f61013f565b60405161007c91906102f7565b60405180910390f35b61008d61014f565b60405161009a91906102f7565b60405180910390f35b6100ab610156565b6040516100b891906102f7565b60405180910390f35b6100db60048036038101906100d69190610343565b610166565b6040516100e891906102f7565b60405180910390f35b61010b60048036038101906101069190610343565b610244565b60405161011891906102f7565b60405180910390f35b6101296102d4565b60405161013691906102f7565b60405180910390f35b6b0295be96e64066972000000081565b620f424081565b6b033b2e3c9fd0803ce800000081565b60008083116101aa576040517f08c379a00000000000000000000000000000000000000000000000000000000081526004016101a1906103e0565b60405180910390fd5b828210156101ed576040517f08c379a00000000000000000000000000000000000000000000000000000000081526004016101e49061044c565b60405180910390fd5b6000670de0b6b3a76400008484610204919061049b565b620f424061021291906104cf565b61021c9190610540565b655af3107a400061022d9190610571565b9050838161023b91906104cf565b91505092915050565b6000808311610288576040517f08c379a000000000000000000000000000000000000000000000000000000000815260040161027f906103e0565b60405180910390fd5b6000670de0b6b3a764000083620f42406102a291906104cf565b6102ac9190610540565b655af3107a40006102bd9190610571565b905083816102cb91906104cf565b91505092915050565b655af3107a400081565b6000819050919050565b6102f1816102de565b82525050565b600060208201905061030c60008301846102e8565b92915050565b600080fd5b610320816102de565b811461032b57600080fd5b50565b60008135905061033d81610317565b92915050565b6000806040838503121561035a57610359610312565b5b60006103688582860161032e565b92505060206103798582860161032e565b9150509250929050565b600082825260208201905092915050565b7f416d6f756e74206d7573742062652067726561746572207468616e207a65726f600082015250565b60006103ca602083610383565b91506103d582610394565b602082019050919050565b600060208201905081810360008301526103f9816103bd565b9050919050565b7f496e73756666696369656e7420737570706c7920666f722073656c6c00000000600082015250565b6000610436601c83610383565b915061044182610400565b602082019050919050565b6000602082019050818103600083015261046581610429565b9050919050565b7f4e487b7100000000000000000000000000000000000000000000000000000000600052601160045260246000fd5b60006104a6826102de565b91506104b1836102de565b92508282039050818111156104c9576104c861046c565b5b92915050565b60006104da826102de565b91506104e5836102de565b92508282026104f3816102de565b9150828204841483151761050a5761050961046c565b5b5092915050565b7f4e487b7100000000000000000000000000000000000000000000000000000000600052601260045260246000fd5b600061054b826102de565b9150610556836102de565b92508261056657610565610511565b5b828204905092915050565b600061057c826102de565b9150610587836102de565b925082820190508082111561059f5761059e61046c565b5b9291505056fea2646970667358221220547f10f43a0bf23cd9932ac39579f858bca7be901467d7aa5daad1478d3698a964736f6c63430008140033",
  "linkReferences": {},
  "deployedLinkReferences": {}
}