{
  "_format": "hh-sol-artifact-1",
  "contractName": "TokenFactory_n",
  "sourceName": "contracts/TokenFactory_n.sol",
  "abi": [
    {
      "anonymous": false,
      "inputs": [
        {
          "indexed": true,
          "internalType": "address",
          "name": "tokenAddress",
          "type": "address"
        },
        {
          "indexed": false,
          "internalType": "string",
          "name": "name",
          "type": "string"
        },
        {
          "indexed": false,
          "internalType": "string",
          "name": "symbol",
          "type": "string"
        },
        {
          "indexed": false,
          "internalType": "address",
          "name": "tradingContract",
          "type": "address"
        },
        {
          "indexed": false,
          "internalType": "address",
          "name": "bondingCurve",
          "type": "address"
        },
        {
          "indexed": false,
          "internalType": "address",
          "name": "creator",
          "type": "address"
        }
      ],
      "name": "TokenCreated",
      "type": "event"
    },
    {
      "inputs": [
        {
          "internalType": "uint256",
          "name": "",
          "type": "uint256"
        }
      ],
      "name": "allTokens",
      "outputs": [
        {
          "internalType": "address",
          "name": "tokenAddress",
          "type": "address"
        },
        {
          "internalType": "address",
          "name": "tradingContract",
          "type": "address"
        },
        {
          "internalType": "string",
          "name": "name",
          "type": "string"
        },
        {
          "internalType": "string",
          "name": "symbol",
          "type": "string"
        },
        {
          "internalType": "address",
          "name": "creator",
          "type": "address"
        },
        {
          "internalType": "address",
          "name": "bondingCurve",
          "type": "address"
        }
      ],
      "stateMutability": "view",
      "type": "function"
    },
    {
      "inputs": [
        {
          "internalType": "string",
          "name": "name",
          "type": "string"
        },
        {
          "internalType": "string",
          "name": "symbol",
          "type": "string"
        }
      ],
      "name": "createToken",
      "outputs": [],
      "stateMutability": "nonpayable",
      "type": "function"
    },
    {
      "inputs": [],
      "name": "getAllTokens",
      "outputs": [
        {
          "components": [
            {
              "internalType": "address",
              "name": "tokenAddress",
              "type": "address"
            },
            {
              "internalType": "address",
              "name": "tradingContract",
              "type": "address"
            },
            {
              "internalType": "string",
              "name": "name",
              "type": "string"
            },
            {
              "internalType": "string",
              "name": "symbol",
              "type": "string"
            },
            {
              "internalType": "address",
              "name": "creator",
              "type": "address"
            },
            {
              "internalType": "address",
              "name": "bondingCurve",
              "type": "address"
            }
          ],
          "internalType": "struct TokenFactory_n.TokenDetails[]",
          "name": "",
          "type": "tuple[]"
        }
      ],
      "stateMutability": "view",
      "type": "function"
    }
  ],
  "bytecode": "0x608060405234801561001057600080fd5b50613f22806100206000396000f3fe60806040523480156200001157600080fd5b5060043610620000465760003560e01c80632a5c792a146200004b5780632f2f2d56146200006d578063634282af146200008d575b600080fd5b62000055620000c8565b60405162000064919062000b99565b60405180910390f35b6200008b600480360381019062000085919062000d22565b620003b5565b005b620000ab6004803603810190620000a5919062000de2565b62000737565b604051620000bf9695949392919062000e77565b60405180910390f35b60606000805480602002602001604051908101604052809291908181526020016000905b82821015620003ac57838290600052602060002090600602016040518060c00160405290816000820160009054906101000a900473ffffffffffffffffffffffffffffffffffffffff1673ffffffffffffffffffffffffffffffffffffffff1673ffffffffffffffffffffffffffffffffffffffff1681526020016001820160009054906101000a900473ffffffffffffffffffffffffffffffffffffffff1673ffffffffffffffffffffffffffffffffffffffff1673ffffffffffffffffffffffffffffffffffffffff168152602001600282018054620001ce9062000f21565b80601f0160208091040260200160405190810160405280929190818152602001828054620001fc9062000f21565b80156200024d5780601f1062000221576101008083540402835291602001916200024d565b820191906000526020600020905b8154815290600101906020018083116200022f57829003601f168201915b50505050508152602001600382018054620002689062000f21565b80601f0160208091040260200160405190810160405280929190818152602001828054620002969062000f21565b8015620002e75780601f10620002bb57610100808354040283529160200191620002e7565b820191906000526020600020905b815481529060010190602001808311620002c957829003601f168201915b505050505081526020016004820160009054906101000a900473ffffffffffffffffffffffffffffffffffffffff1673ffffffffffffffffffffffffffffffffffffffff1673ffffffffffffffffffffffffffffffffffffffff1681526020016005820160009054906101000a900473ffffffffffffffffffffffffffffffffffffffff1673ffffffffffffffffffffffffffffffffffffffff1673ffffffffffffffffffffffffffffffffffffffff168152505081526020019060010190620000ec565b50505050905090565b60008282604051620003c79062000924565b620003d492919062000f56565b604051809103906000f080158015620003f1573d6000803e3d6000fd5b5090506000604051620004049062000932565b604051809103906000f08015801562000421573d6000803e3d6000fd5b5090506000828233604051620004379062000940565b620004459392919062000f91565b604051809103906000f08015801562000462573d6000803e3d6000fd5b5090508273ffffffffffffffffffffffffffffffffffffffff16635be6f2c7826040518263ffffffff1660e01b8152600401620004a0919062000fce565b600060405180830381600087803b158015620004bb57600080fd5b505af1158015620004d0573d6000803e3d6000fd5b5050505060006040518060c001604052808573ffffffffffffffffffffffffffffffffffffffff1681526020018373ffffffffffffffffffffffffffffffffffffffff1681526020018781526020018681526020013373ffffffffffffffffffffffffffffffffffffffff1681526020018473ffffffffffffffffffffffffffffffffffffffff168152509050600081908060018154018082558091505060019003906000526020600020906006020160009091909190915060008201518160000160006101000a81548173ffffffffffffffffffffffffffffffffffffffff021916908373ffffffffffffffffffffffffffffffffffffffff16021790555060208201518160010160006101000a81548173ffffffffffffffffffffffffffffffffffffffff021916908373ffffffffffffffffffffffffffffffffffffffff16021790555060408201518160020190816200062e9190620011bd565b506060820151816003019081620006469190620011bd565b5060808201518160040160006101000a81548173ffffffffffffffffffffffffffffffffffffffff021916908373ffffffffffffffffffffffffffffffffffffffff16021790555060a08201518160050160006101000a81548173ffffffffffffffffffffffffffffffffffffffff021916908373ffffffffffffffffffffffffffffffffffffffff16021790555050508373ffffffffffffffffffffffffffffffffffffffff167f7b66ae1a2c6a05f9076952c63fb129268ae229099b62eafab1b8b4ccb14744e3878785873360405162000727959493929190620012a4565b60405180910390a2505050505050565b600081815481106200074857600080fd5b90600052602060002090600602016000915090508060000160009054906101000a900473ffffffffffffffffffffffffffffffffffffffff16908060010160009054906101000a900473ffffffffffffffffffffffffffffffffffffffff1690806002018054620007b99062000f21565b80601f0160208091040260200160405190810160405280929190818152602001828054620007e79062000f21565b8015620008385780601f106200080c5761010080835404028352916020019162000838565b820191906000526020600020905b8154815290600101906020018083116200081a57829003601f168201915b5050505050908060030180546200084f9062000f21565b80601f01602080910402602001604051908101604052809291908181526020018280546200087d9062000f21565b8015620008ce5780601f10620008a257610100808354040283529160200191620008ce565b820191906000526020600020905b815481529060010190602001808311620008b057829003601f168201915b5050505050908060040160009054906101000a900473ffffffffffffffffffffffffffffffffffffffff16908060050160009054906101000a900473ffffffffffffffffffffffffffffffffffffffff16905086565b6118d8806200131083390190565b6105fb8062002be883390190565b610d0a80620031e383390190565b600081519050919050565b600082825260208201905092915050565b6000819050602082019050919050565b600073ffffffffffffffffffffffffffffffffffffffff82169050919050565b6000620009a7826200097a565b9050919050565b620009b9816200099a565b82525050565b600081519050919050565b600082825260208201905092915050565b60005b83811015620009fb578082015181840152602081019050620009de565b60008484015250505050565b6000601f19601f8301169050919050565b600062000a2582620009bf565b62000a318185620009ca565b935062000a43818560208601620009db565b62000a4e8162000a07565b840191505092915050565b600060c08301600083015162000a736000860182620009ae565b50602083015162000a886020860182620009ae565b506040830151848203604086015262000aa2828262000a18565b9150506060830151848203606086015262000abe828262000a18565b915050608083015162000ad56080860182620009ae565b5060a083015162000aea60a0860182620009ae565b508091505092915050565b600062000b03838362000a59565b905092915050565b6000602082019050919050565b600062000b25826200094e565b62000b31818562000959565b93508360208202850162000b45856200096a565b8060005b8581101562000b87578484038952815162000b65858262000af5565b945062000b728362000b0b565b925060208a0199505060018101905062000b49565b50829750879550505050505092915050565b6000602082019050818103600083015262000bb5818462000b18565b905092915050565b6000604051905090565b600080fd5b600080fd5b600080fd5b600080fd5b7f4e487b7100000000000000000000000000000000000000000000000000000000600052604160045260246000fd5b62000c158262000a07565b810181811067ffffffffffffffff8211171562000c375762000c3662000bdb565b5b80604052505050565b600062000c4c62000bbd565b905062000c5a828262000c0a565b919050565b600067ffffffffffffffff82111562000c7d5762000c7c62000bdb565b5b62000c888262000a07565b9050602081019050919050565b82818337600083830152505050565b600062000cbb62000cb58462000c5f565b62000c40565b90508281526020810184848401111562000cda5762000cd962000bd6565b5b62000ce784828562000c95565b509392505050565b600082601f83011262000d075762000d0662000bd1565b5b813562000d1984826020860162000ca4565b91505092915050565b6000806040838503121562000d3c5762000d3b62000bc7565b5b600083013567ffffffffffffffff81111562000d5d5762000d5c62000bcc565b5b62000d6b8582860162000cef565b925050602083013567ffffffffffffffff81111562000d8f5762000d8e62000bcc565b5b62000d9d8582860162000cef565b9150509250929050565b6000819050919050565b62000dbc8162000da7565b811462000dc857600080fd5b50565b60008135905062000ddc8162000db1565b92915050565b60006020828403121562000dfb5762000dfa62000bc7565b5b600062000e0b8482850162000dcb565b91505092915050565b62000e1f816200099a565b82525050565b600082825260208201905092915050565b600062000e4382620009bf565b62000e4f818562000e25565b935062000e61818560208601620009db565b62000e6c8162000a07565b840191505092915050565b600060c08201905062000e8e600083018962000e14565b62000e9d602083018862000e14565b818103604083015262000eb1818762000e36565b9050818103606083015262000ec7818662000e36565b905062000ed8608083018562000e14565b62000ee760a083018462000e14565b979650505050505050565b7f4e487b7100000000000000000000000000000000000000000000000000000000600052602260045260246000fd5b6000600282049050600182168062000f3a57607f821691505b60208210810362000f505762000f4f62000ef2565b5b50919050565b6000604082019050818103600083015262000f72818562000e36565b9050818103602083015262000f88818462000e36565b90509392505050565b600060608201905062000fa8600083018662000e14565b62000fb7602083018562000e14565b62000fc6604083018462000e14565b949350505050565b600060208201905062000fe5600083018462000e14565b92915050565b60008190508160005260206000209050919050565b60006020601f8301049050919050565b600082821b905092915050565b6000600883026200104f7fffffffffffffffffffffffffffffffffffffffffffffffffffffffffffffffff8262001010565b6200105b868362001010565b95508019841693508086168417925050509392505050565b6000819050919050565b60006200109e62001098620010928462000da7565b62001073565b62000da7565b9050919050565b6000819050919050565b620010ba836200107d565b620010d2620010c982620010a5565b8484546200101d565b825550505050565b600090565b620010e9620010da565b620010f6818484620010af565b505050565b5b818110156200111e5762001112600082620010df565b600181019050620010fc565b5050565b601f8211156200116d57620011378162000feb565b620011428462001000565b8101602085101562001152578190505b6200116a620011618562001000565b830182620010fb565b50505b505050565b600082821c905092915050565b6000620011926000198460080262001172565b1980831691505092915050565b6000620011ad83836200117f565b9150826002028217905092915050565b620011c882620009bf565b67ffffffffffffffff811115620011e457620011e362000bdb565b5b620011f0825462000f21565b620011fd82828562001122565b600060209050601f83116001811462001235576000841562001220578287015190505b6200122c85826200119f565b8655506200129c565b601f198416620012458662000feb565b60005b828110156200126f5784890151825560018201915060208501945060208101905062001248565b868310156200128f57848901516200128b601f8916826200117f565b8355505b6001600288020188555050505b505050505050565b600060a0820190508181036000830152620012c0818862000e36565b90508181036020830152620012d6818762000e36565b9050620012e7604083018662000e14565b620012f6606083018562000e14565b62001305608083018462000e14565b969550505050505056fe60806040523480156200001157600080fd5b50604051620018d8380380620018d88339818101604052810190620000379190620001fa565b818181600390816200004a9190620004ca565b5080600490816200005c9190620004ca565b5050505050620005b1565b6000604051905090565b600080fd5b600080fd5b600080fd5b600080fd5b6000601f19601f8301169050919050565b7f4e487b7100000000000000000000000000000000000000000000000000000000600052604160045260246000fd5b620000d08262000085565b810181811067ffffffffffffffff82111715620000f257620000f162000096565b5b80604052505050565b60006200010762000067565b9050620001158282620000c5565b919050565b600067ffffffffffffffff82111562000138576200013762000096565b5b620001438262000085565b9050602081019050919050565b60005b838110156200017057808201518184015260208101905062000153565b60008484015250505050565b6000620001936200018d846200011a565b620000fb565b905082815260208101848484011115620001b257620001b162000080565b5b620001bf84828562000150565b509392505050565b600082601f830112620001df57620001de6200007b565b5b8151620001f18482602086016200017c565b91505092915050565b6000806040838503121562000214576200021362000071565b5b600083015167ffffffffffffffff81111562000235576200023462000076565b5b6200024385828601620001c7565b925050602083015167ffffffffffffffff81111562000267576200026662000076565b5b6200027585828601620001c7565b9150509250929050565b600081519050919050565b7f4e487b7100000000000000000000000000000000000000000000000000000000600052602260045260246000fd5b60006002820490506001821680620002d257607f821691505b602082108103620002e857620002e76200028a565b5b50919050565b60008190508160005260206000209050919050565b60006020601f8301049050919050565b600082821b905092915050565b600060088302620003527fffffffffffffffffffffffffffffffffffffffffffffffffffffffffffffffff8262000313565b6200035e868362000313565b95508019841693508086168417925050509392505050565b6000819050919050565b6000819050919050565b6000620003ab620003a56200039f8462000376565b62000380565b62000376565b9050919050565b6000819050919050565b620003c7836200038a565b620003df620003d682620003b2565b84845462000320565b825550505050565b600090565b620003f6620003e7565b62000403818484620003bc565b505050565b5b818110156200042b576200041f600082620003ec565b60018101905062000409565b5050565b601f8211156200047a576200044481620002ee565b6200044f8462000303565b810160208510156200045f578190505b620004776200046e8562000303565b83018262000408565b50505b505050565b600082821c905092915050565b60006200049f600019846008026200047f565b1980831691505092915050565b6000620004ba83836200048c565b9150826002028217905092915050565b620004d5826200027f565b67ffffffffffffffff811115620004f157620004f062000096565b5b620004fd8254620002b9565b6200050a8282856200042f565b600060209050601f8311600181146200054257600084156200052d578287015190505b620005398582620004ac565b865550620005a9565b601f1984166200055286620002ee565b60005b828110156200057c5784890151825560018201915060208501945060208101905062000555565b868310156200059c578489015162000598601f8916826200048c565b8355505b6001600288020188555050505b505050505050565b61131780620005c16000396000f3fe608060405234801561001057600080fd5b50600436106100cf5760003560e01c80635be6f2c71161008c5780639dc29fac116100665780639dc29fac146102145780639e4bd2e914610230578063a9059cbb1461024e578063dd62ed3e1461027e576100cf565b80635be6f2c7146101aa57806370a08231146101c657806395d89b41146101f6576100cf565b806306fdde03146100d4578063095ea7b3146100f257806318160ddd1461012257806323b872dd14610140578063313ce5671461017057806340c10f191461018e575b600080fd5b6100dc6102ae565b6040516100e99190610e93565b60405180910390f35b61010c60048036038101906101079190610f4e565b610340565b6040516101199190610fa9565b60405180910390f35b61012a610363565b6040516101379190610fd3565b60405180910390f35b61015a60048036038101906101559190610fee565b61036d565b6040516101679190610fa9565b60405180910390f35b61017861039c565b604051610185919061105d565b60405180910390f35b6101a860048036038101906101a39190610f4e565b6103a5565b005b6101c460048036038101906101bf9190611078565b610443565b005b6101e060048036038101906101db9190611078565b610518565b6040516101ed9190610fd3565b60405180910390f35b6101fe610560565b60405161020b9190610e93565b60405180910390f35b61022e60048036038101906102299190610f4e565b6105f2565b005b610238610690565b60405161024591906110b4565b60405180910390f35b61026860048036038101906102639190610f4e565b6106b6565b6040516102759190610fa9565b60405180910390f35b610298600480360381019061029391906110cf565b6106d9565b6040516102a59190610fd3565b60405180910390f35b6060600380546102bd9061113e565b80601f01602080910402602001604051908101604052809291908181526020018280546102e99061113e565b80156103365780601f1061030b57610100808354040283529160200191610336565b820191906000526020600020905b81548152906001019060200180831161031957829003601f168201915b5050505050905090565b60008061034b610760565b9050610358818585610768565b600191505092915050565b6000600254905090565b600080610378610760565b905061038585828561077a565b61039085858561080f565b60019150509392505050565b60006012905090565b600560009054906101000a900473ffffffffffffffffffffffffffffffffffffffff1673ffffffffffffffffffffffffffffffffffffffff163373ffffffffffffffffffffffffffffffffffffffff1614610435576040517f08c379a000000000000000000000000000000000000000000000000000000000815260040161042c906111bb565b60405180910390fd5b61043f8282610903565b5050565b600073ffffffffffffffffffffffffffffffffffffffff16600560009054906101000a900473ffffffffffffffffffffffffffffffffffffffff1673ffffffffffffffffffffffffffffffffffffffff16146104d4576040517f08c379a00000000000000000000000000000000000000000000000000000000081526004016104cb90611227565b60405180910390fd5b80600560006101000a81548173ffffffffffffffffffffffffffffffffffffffff021916908373ffffffffffffffffffffffffffffffffffffffff16021790555050565b60008060008373ffffffffffffffffffffffffffffffffffffffff1673ffffffffffffffffffffffffffffffffffffffff168152602001908152602001600020549050919050565b60606004805461056f9061113e565b80601f016020809104026020016040519081016040528092919081815260200182805461059b9061113e565b80156105e85780601f106105bd576101008083540402835291602001916105e8565b820191906000526020600020905b8154815290600101906020018083116105cb57829003601f168201915b5050505050905090565b600560009054906101000a900473ffffffffffffffffffffffffffffffffffffffff1673ffffffffffffffffffffffffffffffffffffffff163373ffffffffffffffffffffffffffffffffffffffff1614610682576040517f08c379a0000000000000000000000000000000000000000000000000000000008152600401610679906111bb565b60405180910390fd5b61068c8282610985565b5050565b600560009054906101000a900473ffffffffffffffffffffffffffffffffffffffff1681565b6000806106c1610760565b90506106ce81858561080f565b600191505092915050565b6000600160008473ffffffffffffffffffffffffffffffffffffffff1673ffffffffffffffffffffffffffffffffffffffff16815260200190815260200160002060008373ffffffffffffffffffffffffffffffffffffffff1673ffffffffffffffffffffffffffffffffffffffff16815260200190815260200160002054905092915050565b600033905090565b6107758383836001610a07565b505050565b600061078684846106d9565b90507fffffffffffffffffffffffffffffffffffffffffffffffffffffffffffffffff81101561080957818110156107f9578281836040517ffb8f41b20000000000000000000000000000000000000000000000000000000081526004016107f093929190611247565b60405180910390fd5b61080884848484036000610a07565b5b50505050565b600073ffffffffffffffffffffffffffffffffffffffff168373ffffffffffffffffffffffffffffffffffffffff16036108815760006040517f96c6fd1e00000000000000000000000000000000000000000000000000000000815260040161087891906110b4565b60405180910390fd5b600073ffffffffffffffffffffffffffffffffffffffff168273ffffffffffffffffffffffffffffffffffffffff16036108f35760006040517fec442f050000000000000000000000000000000000000000000000000000000081526004016108ea91906110b4565b60405180910390fd5b6108fe838383610bde565b505050565b600073ffffffffffffffffffffffffffffffffffffffff168273ffffffffffffffffffffffffffffffffffffffff16036109755760006040517fec442f0500000000000000000000000000000000000000000000000000000000815260040161096c91906110b4565b60405180910390fd5b61098160008383610bde565b5050565b600073ffffffffffffffffffffffffffffffffffffffff168273ffffffffffffffffffffffffffffffffffffffff16036109f75760006040517f96c6fd1e0000000000000000000000000000000000000000000000000000000081526004016109ee91906110b4565b60405180910390fd5b610a0382600083610bde565b5050565b600073ffffffffffffffffffffffffffffffffffffffff168473ffffffffffffffffffffffffffffffffffffffff1603610a795760006040517fe602df05000000000000000000000000000000000000000000000000000000008152600401610a7091906110b4565b60405180910390fd5b600073ffffffffffffffffffffffffffffffffffffffff168373ffffffffffffffffffffffffffffffffffffffff1603610aeb5760006040517f94280d62000000000000000000000000000000000000000000000000000000008152600401610ae291906110b4565b60405180910390fd5b81600160008673ffffffffffffffffffffffffffffffffffffffff1673ffffffffffffffffffffffffffffffffffffffff16815260200190815260200160002060008573ffffffffffffffffffffffffffffffffffffffff1673ffffffffffffffffffffffffffffffffffffffff168152602001908152602001600020819055508015610bd8578273ffffffffffffffffffffffffffffffffffffffff168473ffffffffffffffffffffffffffffffffffffffff167f8c5be1e5ebec7d5bd14f71427d1e84f3dd0314c0f7b2291e5b200ac8c7c3b92584604051610bcf9190610fd3565b60405180910390a35b50505050565b600073ffffffffffffffffffffffffffffffffffffffff168373ffffffffffffffffffffffffffffffffffffffff1603610c30578060026000828254610c2491906112ad565b92505081905550610d03565b60008060008573ffffffffffffffffffffffffffffffffffffffff1673ffffffffffffffffffffffffffffffffffffffff16815260200190815260200160002054905081811015610cbc578381836040517fe450d38c000000000000000000000000000000000000000000000000000000008152600401610cb393929190611247565b60405180910390fd5b8181036000808673ffffffffffffffffffffffffffffffffffffffff1673ffffffffffffffffffffffffffffffffffffffff16815260200190815260200160002081905550505b600073ffffffffffffffffffffffffffffffffffffffff168273ffffffffffffffffffffffffffffffffffffffff1603610d4c5780600260008282540392505081905550610d99565b806000808473ffffffffffffffffffffffffffffffffffffffff1673ffffffffffffffffffffffffffffffffffffffff168152602001908152602001600020600082825401925050819055505b8173ffffffffffffffffffffffffffffffffffffffff168373ffffffffffffffffffffffffffffffffffffffff167fddf252ad1be2c89b69c2b068fc378daa952ba7f163c4a11628f55a4df523b3ef83604051610df69190610fd3565b60405180910390a3505050565b600081519050919050565b600082825260208201905092915050565b60005b83811015610e3d578082015181840152602081019050610e22565b60008484015250505050565b6000601f19601f8301169050919050565b6000610e6582610e03565b610e6f8185610e0e565b9350610e7f818560208601610e1f565b610e8881610e49565b840191505092915050565b60006020820190508181036000830152610ead8184610e5a565b905092915050565b600080fd5b600073ffffffffffffffffffffffffffffffffffffffff82169050919050565b6000610ee582610eba565b9050919050565b610ef581610eda565b8114610f0057600080fd5b50565b600081359050610f1281610eec565b92915050565b6000819050919050565b610f2b81610f18565b8114610f3657600080fd5b50565b600081359050610f4881610f22565b92915050565b60008060408385031215610f6557610f64610eb5565b5b6000610f7385828601610f03565b9250506020610f8485828601610f39565b9150509250929050565b60008115159050919050565b610fa381610f8e565b82525050565b6000602082019050610fbe6000830184610f9a565b92915050565b610fcd81610f18565b82525050565b6000602082019050610fe86000830184610fc4565b92915050565b60008060006060848603121561100757611006610eb5565b5b600061101586828701610f03565b935050602061102686828701610f03565b925050604061103786828701610f39565b9150509250925092565b600060ff82169050919050565b61105781611041565b82525050565b6000602082019050611072600083018461104e565b92915050565b60006020828403121561108e5761108d610eb5565b5b600061109c84828501610f03565b91505092915050565b6110ae81610eda565b82525050565b60006020820190506110c960008301846110a5565b92915050565b600080604083850312156110e6576110e5610eb5565b5b60006110f485828601610f03565b925050602061110585828601610f03565b9150509250929050565b7f4e487b7100000000000000000000000000000000000000000000000000000000600052602260045260246000fd5b6000600282049050600182168061115657607f821691505b6020821081036111695761116861110f565b5b50919050565b7f4e6f7420617574686f72697a6564000000000000000000000000000000000000600082015250565b60006111a5600e83610e0e565b91506111b08261116f565b602082019050919050565b600060208201905081810360008301526111d481611198565b9050919050565b7f54726164696e6720636f6e747261637420616c72656164792073657400000000600082015250565b6000611211601c83610e0e565b915061121c826111db565b602082019050919050565b6000602082019050818103600083015261124081611204565b9050919050565b600060608201905061125c60008301866110a5565b6112696020830185610fc4565b6112766040830184610fc4565b949350505050565b7f4e487b7100000000000000000000000000000000000000000000000000000000600052601160045260246000fd5b60006112b882610f18565b91506112c383610f18565b92508282019050808211156112db576112da61127e565b5b9291505056fea2646970667358221220f819cdafbd48fca9acb15d417918a207f672723afaab4858383c05e5721785d464736f6c63430008140033608060405234801561001057600080fd5b506105db806100206000396000f3fe608060405234801561001057600080fd5b50600436106100625760003560e01c80631e4c7292146100675780638b7cc62914610085578063902d55a5146100a35780639477d85d146100c1578063c157253d146100f1578063f86325ed14610121575b600080fd5b61006f61013f565b60405161007c91906102f7565b60405180910390f35b61008d61014f565b60405161009a91906102f7565b60405180910390f35b6100ab610156565b6040516100b891906102f7565b60405180910390f35b6100db60048036038101906100d69190610343565b610166565b6040516100e891906102f7565b60405180910390f35b61010b60048036038101906101069190610343565b610244565b60405161011891906102f7565b60405180910390f35b6101296102d4565b60405161013691906102f7565b60405180910390f35b6b0295be96e64066972000000081565b620f424081565b6b033b2e3c9fd0803ce800000081565b60008083116101aa576040517f08c379a00000000000000000000000000000000000000000000000000000000081526004016101a1906103e0565b60405180910390fd5b828210156101ed576040517f08c379a00000000000000000000000000000000000000000000000000000000081526004016101e49061044c565b60405180910390fd5b6000670de0b6b3a76400008484610204919061049b565b620f424061021291906104cf565b61021c9190610540565b655af3107a400061022d9190610571565b9050838161023b91906104cf565b91505092915050565b6000808311610288576040517f08c379a000000000000000000000000000000000000000000000000000000000815260040161027f906103e0565b60405180910390fd5b6000670de0b6b3a764000083620f42406102a291906104cf565b6102ac9190610540565b655af3107a40006102bd9190610571565b905083816102cb91906104cf565b91505092915050565b655af3107a400081565b6000819050919050565b6102f1816102de565b82525050565b600060208201905061030c60008301846102e8565b92915050565b600080fd5b610320816102de565b811461032b57600080fd5b50565b60008135905061033d81610317565b92915050565b6000806040838503121561035a57610359610312565b5b60006103688582860161032e565b92505060206103798582860161032e565b9150509250929050565b600082825260208201905092915050565b7f416d6f756e74206d7573742062652067726561746572207468616e207a65726f600082015250565b60006103ca602083610383565b91506103d582610394565b602082019050919050565b600060208201905081810360008301526103f9816103bd565b9050919050565b7f496e73756666696369656e7420737570706c7920666f722073656c6c00000000600082015250565b6000610436601c83610383565b915061044182610400565b602082019050919050565b6000602082019050818103600083015261046581610429565b9050919050565b7f4e487b7100000000000000000000000000000000000000000000000000000000600052601160045260246000fd5b60006104a6826102de565b91506104b1836102de565b92508282039050818111156104c9576104c861046c565b5b92915050565b60006104da826102de565b91506104e5836102de565b92508282026104f3816102de565b9150828204841483151761050a5761050961046c565b5b5092915050565b7f4e487b7100000000000000000000000000000000000000000000000000000000600052601260045260246000fd5b600061054b826102de565b9150610556836102de565b92508261056657610565610511565b5b828204905092915050565b600061057c826102de565b9150610587836102de565b925082820190508082111561059f5761059e61046c565b5b9291505056fea2646970667358221220547f10f43a0bf23cd9932ac39579f858bca7be901467d7aa5daad1478d3698a964736f6c63430008140033608060405234801561001057600080fd5b50604051610d0a380380610d0a8339818101604052810190610032919061015f565b826000806101000a81548173ffffffffffffffffffffffffffffffffffffffff021916908373ffffffffffffffffffffffffffffffffffffffff16021790555081600160006101000a81548173ffffffffffffffffffffffffffffffffffffffff021916908373ffffffffffffffffffffffffffffffffffffffff16021790555080600260006101000a81548173ffffffffffffffffffffffffffffffffffffffff021916908373ffffffffffffffffffffffffffffffffffffffff1602179055505050506101b2565b600080fd5b600073ffffffffffffffffffffffffffffffffffffffff82169050919050565b600061012c82610101565b9050919050565b61013c81610121565b811461014757600080fd5b50565b60008151905061015981610133565b92915050565b600080600060608486031215610178576101776100fc565b5b60006101868682870161014a565b93505060206101978682870161014a565b92505060406101a88682870161014a565b9150509250925092565b610b49806101c16000396000f3fe60806040526004361061004a5760003560e01c80633610724e1461004f5780636c11bcd31461006b5780638da5cb5b14610094578063eff1d50e146100bf578063fc0c546a146100ea575b600080fd5b610069600480360381019061006491906107dc565b610115565b005b34801561007757600080fd5b50610092600480360381019061008d91906107dc565b6103b3565b005b3480156100a057600080fd5b506100a9610731565b6040516100b6919061084a565b60405180910390f35b3480156100cb57600080fd5b506100d4610757565b6040516100e191906108c4565b60405180910390f35b3480156100f657600080fd5b506100ff61077d565b60405161010c9190610900565b60405180910390f35b60008111610158576040517f08c379a000000000000000000000000000000000000000000000000000000000815260040161014f90610978565b60405180910390fd5b60008060009054906101000a900473ffffffffffffffffffffffffffffffffffffffff1673ffffffffffffffffffffffffffffffffffffffff166318160ddd6040518163ffffffff1660e01b8152600401602060405180830381865afa1580156101c6573d6000803e3d6000fd5b505050506040513d601f19601f820116820180604052508101906101ea91906109ad565b90506000600160009054906101000a900473ffffffffffffffffffffffffffffffffffffffff1673ffffffffffffffffffffffffffffffffffffffff1663c157253d84846040518363ffffffff1660e01b815260040161024b9291906109e9565b602060405180830381865afa158015610268573d6000803e3d6000fd5b505050506040513d601f19601f8201168201806040525081019061028c91906109ad565b9050803410156102d1576040517f08c379a00000000000000000000000000000000000000000000000000000000081526004016102c890610a5e565b60405180910390fd5b60008054906101000a900473ffffffffffffffffffffffffffffffffffffffff1673ffffffffffffffffffffffffffffffffffffffff166340c10f1933856040518363ffffffff1660e01b815260040161032c929190610a7e565b600060405180830381600087803b15801561034657600080fd5b505af115801561035a573d6000803e3d6000fd5b505050503373ffffffffffffffffffffffffffffffffffffffff167f8442948036198f1146d3a63c3db355d7e0295c2cc5676c755990445da4fdc1c984836040516103a69291906109e9565b60405180910390a2505050565b600081116103f6576040517f08c379a00000000000000000000000000000000000000000000000000000000081526004016103ed90610978565b60405180910390fd5b8060008054906101000a900473ffffffffffffffffffffffffffffffffffffffff1673ffffffffffffffffffffffffffffffffffffffff166370a08231336040518263ffffffff1660e01b8152600401610450919061084a565b602060405180830381865afa15801561046d573d6000803e3d6000fd5b505050506040513d601f19601f8201168201806040525081019061049191906109ad565b10156104d2576040517f08c379a00000000000000000000000000000000000000000000000000000000081526004016104c990610af3565b60405180910390fd5b60008060009054906101000a900473ffffffffffffffffffffffffffffffffffffffff1673ffffffffffffffffffffffffffffffffffffffff166318160ddd6040518163ffffffff1660e01b8152600401602060405180830381865afa158015610540573d6000803e3d6000fd5b505050506040513d601f19601f8201168201806040525081019061056491906109ad565b90506000600160009054906101000a900473ffffffffffffffffffffffffffffffffffffffff1673ffffffffffffffffffffffffffffffffffffffff16639477d85d84846040518363ffffffff1660e01b81526004016105c59291906109e9565b602060405180830381865afa1580156105e2573d6000803e3d6000fd5b505050506040513d601f19601f8201168201806040525081019061060691906109ad565b905060008054906101000a900473ffffffffffffffffffffffffffffffffffffffff1673ffffffffffffffffffffffffffffffffffffffff16639dc29fac33856040518363ffffffff1660e01b8152600401610663929190610a7e565b600060405180830381600087803b15801561067d57600080fd5b505af1158015610691573d6000803e3d6000fd5b505050503373ffffffffffffffffffffffffffffffffffffffff166108fc829081150290604051600060405180830381858888f193505050501580156106db573d6000803e3d6000fd5b503373ffffffffffffffffffffffffffffffffffffffff167f2dcf9433d75db0d8b1c172641f85e319ffe4ad22e108a95d1847ceb906e5195d84836040516107249291906109e9565b60405180910390a2505050565b600260009054906101000a900473ffffffffffffffffffffffffffffffffffffffff1681565b600160009054906101000a900473ffffffffffffffffffffffffffffffffffffffff1681565b60008054906101000a900473ffffffffffffffffffffffffffffffffffffffff1681565b600080fd5b6000819050919050565b6107b9816107a6565b81146107c457600080fd5b50565b6000813590506107d6816107b0565b92915050565b6000602082840312156107f2576107f16107a1565b5b6000610800848285016107c7565b91505092915050565b600073ffffffffffffffffffffffffffffffffffffffff82169050919050565b600061083482610809565b9050919050565b61084481610829565b82525050565b600060208201905061085f600083018461083b565b92915050565b6000819050919050565b600061088a61088561088084610809565b610865565b610809565b9050919050565b600061089c8261086f565b9050919050565b60006108ae82610891565b9050919050565b6108be816108a3565b82525050565b60006020820190506108d960008301846108b5565b92915050565b60006108ea82610891565b9050919050565b6108fa816108df565b82525050565b600060208201905061091560008301846108f1565b92915050565b600082825260208201905092915050565b7f416d6f756e74206d7573742062652067726561746572207468616e207a65726f600082015250565b600061096260208361091b565b915061096d8261092c565b602082019050919050565b6000602082019050818103600083015261099181610955565b9050919050565b6000815190506109a7816107b0565b92915050565b6000602082840312156109c3576109c26107a1565b5b60006109d184828501610998565b91505092915050565b6109e3816107a6565b82525050565b60006040820190506109fe60008301856109da565b610a0b60208301846109da565b9392505050565b7f496e73756666696369656e74204554482073656e740000000000000000000000600082015250565b6000610a4860158361091b565b9150610a5382610a12565b602082019050919050565b60006020820190508181036000830152610a7781610a3b565b9050919050565b6000604082019050610a93600083018561083b565b610aa060208301846109da565b9392505050565b7f496e73756666696369656e7420746f6b656e7300000000000000000000000000600082015250565b6000610add60138361091b565b9150610ae882610aa7565b602082019050919050565b60006020820190508181036000830152610b0c81610ad0565b905091905056fea26469706673582212201f9900fab6873f7253aae2f976b1e6995c81e247b8d35b910ad55018a5409e1c64736f6c63430008140033a2646970667358221220e948289df168952eb2ead658fd38a7b4b9b83023ecb5e2d07604c4cfed833c7064736f6c63430008140033",
  "linkReferences": {},
  "deployedLinkReferences": {}
}