{
  "_format": "hh-sol-artifact-1",
  "contractName": "TradingPlatform",
  "sourceName": "contracts/TradingPlatform.sol",
  "abi": [
    {
      "inputs": [
        {
          "internalType": "address",
          "name": "_token",
          "type": "address"
        },
        {
          "internalType": "uint256",
          "name": "_tokenPrice",
          "type": "uint256"
        }
      ],
      "stateMutability": "nonpayable",
      "type": "constructor"
    },
    {
      "anonymous": false,
      "inputs": [
        {
          "indexed": false,
          "internalType": "uint256",
          "name": "tokenAmount",
          "type": "uint256"
        },
        {
          "indexed": false,
          "internalType": "uint256",
          "name": "ethAmount",
          "type": "uint256"
        }
      ],
      "name": "LiquidityAdded",
      "type": "event"
    },
    {
      "anonymous": false,
      "inputs": [
        {
          "indexed": true,
          "internalType": "address",
          "name": "buyer",
          "type": "address"
        },
        {
          "indexed": false,
          "internalType": "uint256",
          "name": "amount",
          "type": "uint256"
        }
      ],
      "name": "TokensPurchased",
      "type": "event"
    },
    {
      "anonymous": false,
      "inputs": [
        {
          "indexed": true,
          "internalType": "address",
          "name": "seller",
          "type": "address"
        },
        {
          "indexed": false,
          "internalType": "uint256",
          "name": "amount",
          "type": "uint256"
        }
      ],
      "name": "TokensSold",
      "type": "event"
    },
    {
      "inputs": [
        {
          "internalType": "uint256",
          "name": "tokenAmount",
          "type": "uint256"
        }
      ],
      "name": "addLiquidity",
      "outputs": [],
      "stateMutability": "payable",
      "type": "function"
    },
    {
      "inputs": [],
      "name": "buyTokens",
      "outputs": [],
      "stateMutability": "payable",
      "type": "function"
    },
    {
      "inputs": [],
      "name": "owner",
      "outputs": [
        {
          "internalType": "address",
          "name": "",
          "type": "address"
        }
      ],
      "stateMutability": "view",
      "type": "function"
    },
    {
      "inputs": [
        {
          "internalType": "uint256",
          "name": "_amount",
          "type": "uint256"
        }
      ],
      "name": "sellTokens",
      "outputs": [],
      "stateMutability": "nonpayable",
      "type": "function"
    },
    {
      "inputs": [],
      "name": "token",
      "outputs": [
        {
          "internalType": "contract IERC20",
          "name": "",
          "type": "address"
        }
      ],
      "stateMutability": "view",
      "type": "function"
    },
    {
      "inputs": [],
      "name": "tokenPrice",
      "outputs": [
        {
          "internalType": "uint256",
          "name": "",
          "type": "uint256"
        }
      ],
      "stateMutability": "view",
      "type": "function"
    },
    {
      "inputs": [],
      "name": "withdrawETH",
      "outputs": [],
      "stateMutability": "nonpayable",
      "type": "function"
    },
    {
      "inputs": [
        {
          "internalType": "uint256",
          "name": "_amount",
          "type": "uint256"
        }
      ],
      "name": "withdrawTokens",
      "outputs": [],
      "stateMutability": "nonpayable",
      "type": "function"
    }
  ],
  "bytecode": "0x60806040523480156200001157600080fd5b50604051620013703803806200137083398181016040528101906200003791906200016c565b816000806101000a81548173ffffffffffffffffffffffffffffffffffffffff021916908373ffffffffffffffffffffffffffffffffffffffff16021790555033600160006101000a81548173ffffffffffffffffffffffffffffffffffffffff021916908373ffffffffffffffffffffffffffffffffffffffff160217905550806002819055505050620001b3565b600080fd5b600073ffffffffffffffffffffffffffffffffffffffff82169050919050565b6000620000f982620000cc565b9050919050565b6200010b81620000ec565b81146200011757600080fd5b50565b6000815190506200012b8162000100565b92915050565b6000819050919050565b620001468162000131565b81146200015257600080fd5b50565b60008151905062000166816200013b565b92915050565b60008060408385031215620001865762000185620000c7565b5b600062000196858286016200011a565b9250506020620001a98582860162000155565b9150509250929050565b6111ad80620001c36000396000f3fe60806040526004361061007b5760003560e01c80638da5cb5b1161004e5780638da5cb5b14610119578063d0febe4c14610144578063e086e5ec1461014e578063fc0c546a146101655761007b565b8063315a095d1461008057806351c6590a146100a95780636c11bcd3146100c55780637ff9b596146100ee575b600080fd5b34801561008c57600080fd5b506100a760048036038101906100a29190610ad8565b610190565b005b6100c360048036038101906100be9190610ad8565b6102e4565b005b3480156100d157600080fd5b506100ec60048036038101906100e79190610ad8565b6104a0565b005b3480156100fa57600080fd5b5061010361071e565b6040516101109190610b14565b60405180910390f35b34801561012557600080fd5b5061012e610724565b60405161013b9190610b70565b60405180910390f35b61014c61074a565b005b34801561015a57600080fd5b5061016361097e565b005b34801561017157600080fd5b5061017a610a79565b6040516101879190610bea565b60405180910390f35b600160009054906101000a900473ffffffffffffffffffffffffffffffffffffffff1673ffffffffffffffffffffffffffffffffffffffff163373ffffffffffffffffffffffffffffffffffffffff1614610220576040517f08c379a000000000000000000000000000000000000000000000000000000000815260040161021790610c62565b60405180910390fd5b60008054906101000a900473ffffffffffffffffffffffffffffffffffffffff1673ffffffffffffffffffffffffffffffffffffffff1663a9059cbb600160009054906101000a900473ffffffffffffffffffffffffffffffffffffffff16836040518363ffffffff1660e01b815260040161029d929190610c82565b6020604051808303816000875af11580156102bc573d6000803e3d6000fd5b505050506040513d601f19601f820116820180604052508101906102e09190610ce3565b5050565b600160009054906101000a900473ffffffffffffffffffffffffffffffffffffffff1673ffffffffffffffffffffffffffffffffffffffff163373ffffffffffffffffffffffffffffffffffffffff1614610374576040517f08c379a000000000000000000000000000000000000000000000000000000000815260040161036b90610d5c565b60405180910390fd5b6000811180156103845750600034115b6103c3576040517f08c379a00000000000000000000000000000000000000000000000000000000081526004016103ba90610dc8565b60405180910390fd5b60008054906101000a900473ffffffffffffffffffffffffffffffffffffffff1673ffffffffffffffffffffffffffffffffffffffff166323b872dd3330846040518463ffffffff1660e01b815260040161042093929190610de8565b6020604051808303816000875af115801561043f573d6000803e3d6000fd5b505050506040513d601f19601f820116820180604052508101906104639190610ce3565b507f38f8a0c92f4c5b0b6877f878cb4c0c8d348a47b76d716c8e78f425043df9515b8134604051610495929190610e1f565b60405180910390a150565b8060008054906101000a900473ffffffffffffffffffffffffffffffffffffffff1673ffffffffffffffffffffffffffffffffffffffff166370a08231336040518263ffffffff1660e01b81526004016104fa9190610b70565b602060405180830381865afa158015610517573d6000803e3d6000fd5b505050506040513d601f19601f8201168201806040525081019061053b9190610e5d565b101561057c576040517f08c379a000000000000000000000000000000000000000000000000000000000815260040161057390610ed6565b60405180910390fd5b6000670de0b6b3a7640000600254836105959190610f25565b61059f9190610f96565b9050804710156105e4576040517f08c379a00000000000000000000000000000000000000000000000000000000081526004016105db90611013565b60405180910390fd5b60008054906101000a900473ffffffffffffffffffffffffffffffffffffffff1673ffffffffffffffffffffffffffffffffffffffff166323b872dd3330856040518463ffffffff1660e01b815260040161064193929190610de8565b6020604051808303816000875af1158015610660573d6000803e3d6000fd5b505050506040513d601f19601f820116820180604052508101906106849190610ce3565b503373ffffffffffffffffffffffffffffffffffffffff166108fc829081150290604051600060405180830381858888f193505050501580156106cb573d6000803e3d6000fd5b503373ffffffffffffffffffffffffffffffffffffffff167f57d61f3ccd4ccd25ec5d234d6049553a586fac134c85c98d0b0d9d5724f4e43e836040516107129190610b14565b60405180910390a25050565b60025481565b600160009054906101000a900473ffffffffffffffffffffffffffffffffffffffff1681565b6000341161078d576040517f08c379a00000000000000000000000000000000000000000000000000000000081526004016107849061107f565b60405180910390fd5b6000600254670de0b6b3a7640000346107a69190610f25565b6107b09190610f96565b90508060008054906101000a900473ffffffffffffffffffffffffffffffffffffffff1673ffffffffffffffffffffffffffffffffffffffff166370a08231306040518263ffffffff1660e01b815260040161080c9190610b70565b602060405180830381865afa158015610829573d6000803e3d6000fd5b505050506040513d601f19601f8201168201806040525081019061084d9190610e5d565b101561088e576040517f08c379a0000000000000000000000000000000000000000000000000000000008152600401610885906110eb565b60405180910390fd5b60008054906101000a900473ffffffffffffffffffffffffffffffffffffffff1673ffffffffffffffffffffffffffffffffffffffff1663a9059cbb33836040518363ffffffff1660e01b81526004016108e9929190610c82565b6020604051808303816000875af1158015610908573d6000803e3d6000fd5b505050506040513d601f19601f8201168201806040525081019061092c9190610ce3565b503373ffffffffffffffffffffffffffffffffffffffff167f8f28852646c20cc973d3a8218f7eefed58c25c909f78f0265af4818c3d4dc271826040516109739190610b14565b60405180910390a250565b600160009054906101000a900473ffffffffffffffffffffffffffffffffffffffff1673ffffffffffffffffffffffffffffffffffffffff163373ffffffffffffffffffffffffffffffffffffffff1614610a0e576040517f08c379a0000000000000000000000000000000000000000000000000000000008152600401610a0590611157565b60405180910390fd5b600160009054906101000a900473ffffffffffffffffffffffffffffffffffffffff1673ffffffffffffffffffffffffffffffffffffffff166108fc479081150290604051600060405180830381858888f19350505050158015610a76573d6000803e3d6000fd5b50565b60008054906101000a900473ffffffffffffffffffffffffffffffffffffffff1681565b600080fd5b6000819050919050565b610ab581610aa2565b8114610ac057600080fd5b50565b600081359050610ad281610aac565b92915050565b600060208284031215610aee57610aed610a9d565b5b6000610afc84828501610ac3565b91505092915050565b610b0e81610aa2565b82525050565b6000602082019050610b296000830184610b05565b92915050565b600073ffffffffffffffffffffffffffffffffffffffff82169050919050565b6000610b5a82610b2f565b9050919050565b610b6a81610b4f565b82525050565b6000602082019050610b856000830184610b61565b92915050565b6000819050919050565b6000610bb0610bab610ba684610b2f565b610b8b565b610b2f565b9050919050565b6000610bc282610b95565b9050919050565b6000610bd482610bb7565b9050919050565b610be481610bc9565b82525050565b6000602082019050610bff6000830184610bdb565b92915050565b600082825260208201905092915050565b7f4f6e6c79206f776e65722063616e20776974686472617720746f6b656e730000600082015250565b6000610c4c601e83610c05565b9150610c5782610c16565b602082019050919050565b60006020820190508181036000830152610c7b81610c3f565b9050919050565b6000604082019050610c976000830185610b61565b610ca46020830184610b05565b9392505050565b60008115159050919050565b610cc081610cab565b8114610ccb57600080fd5b50565b600081519050610cdd81610cb7565b92915050565b600060208284031215610cf957610cf8610a9d565b5b6000610d0784828501610cce565b91505092915050565b7f4f6e6c79206f776e65722063616e20616464206c697175696469747900000000600082015250565b6000610d46601c83610c05565b9150610d5182610d10565b602082019050919050565b60006020820190508181036000830152610d7581610d39565b9050919050565b7f496e76616c6964206c697175696469747920616d6f756e747300000000000000600082015250565b6000610db2601983610c05565b9150610dbd82610d7c565b602082019050919050565b60006020820190508181036000830152610de181610da5565b9050919050565b6000606082019050610dfd6000830186610b61565b610e0a6020830185610b61565b610e176040830184610b05565b949350505050565b6000604082019050610e346000830185610b05565b610e416020830184610b05565b9392505050565b600081519050610e5781610aac565b92915050565b600060208284031215610e7357610e72610a9d565b5b6000610e8184828501610e48565b91505092915050565b7f4e6f7420656e6f75676820746f6b656e73000000000000000000000000000000600082015250565b6000610ec0601183610c05565b9150610ecb82610e8a565b602082019050919050565b60006020820190508181036000830152610eef81610eb3565b9050919050565b7f4e487b7100000000000000000000000000000000000000000000000000000000600052601160045260246000fd5b6000610f3082610aa2565b9150610f3b83610aa2565b9250828202610f4981610aa2565b91508282048414831517610f6057610f5f610ef6565b5b5092915050565b7f4e487b7100000000000000000000000000000000000000000000000000000000600052601260045260246000fd5b6000610fa182610aa2565b9150610fac83610aa2565b925082610fbc57610fbb610f67565b5b828204905092915050565b7f4e6f7420656e6f7567682045544820696e20636f6e7472616374000000000000600082015250565b6000610ffd601a83610c05565b915061100882610fc7565b602082019050919050565b6000602082019050818103600083015261102c81610ff0565b9050919050565b7f53656e642045544820746f2062757920746f6b656e7300000000000000000000600082015250565b6000611069601683610c05565b915061107482611033565b602082019050919050565b600060208201905081810360008301526110988161105c565b9050919050565b7f4e6f7420656e6f75676820746f6b656e7320696e20636f6e7472616374000000600082015250565b60006110d5601d83610c05565b91506110e08261109f565b602082019050919050565b60006020820190508181036000830152611104816110c8565b9050919050565b7f4f6e6c79206f776e65722063616e207769746864726177204554480000000000600082015250565b6000611141601b83610c05565b915061114c8261110b565b602082019050919050565b6000602082019050818103600083015261117081611134565b905091905056fea2646970667358221220a97badeee1d461a2d8d0331a998ff9409965373fa25f77c33694d5572f86045264736f6c63430008140033",
  "linkReferences": {},
  "deployedLinkReferences": {}
}